:020000040800F2
:10000000D8A000205902000845500008FF3E000813
:10001000B54E000875120008D5A2000800000000C7
:10002000000000000000000000000000A101000826
:10003000651E000800000000F5010008457000087A
:1000400073020008730200087302000873020008BC
:1000500073020008730200087302000873020008AC
:10006000730200087302000873020008730200089C
:10007000730200087302000873020008730200088C
:10008000730200087302000873020008730200087C
:100090001D150008730200087302000873020008AF
:1000A0007302000873020008730200081971000847
:1000B000730200087302000873020008730200084C
:1000C000730200087302000873020008730200083C
:1000D000730200087981000873020008AD810008EE
:1000E000730200087302000873020008730200081C
:1000F000730200087302000873020008730200080C
:1001000073020008730200087302000873020008FB
:10011000FD7C0008730200087302000873020008E7
:1001200073020008730200087302000873020008DB
:1001300073020008730200087302000873020008CB
:10014000730200087302000873020008AD5900082A
:1001500073020008730200087302000873020008AB
:10016000730200087302000873020008730200089B
:10017000730200087302000873020008730200088B
:100180007302000873020008DFF810D000F018FCBA
:1001900000480047E9DF0008AFF30080D8A0002046
:1001A0002A4B19680868B0E8F04F80F30988BFF35C
:1001B0006F8F4FF0000080F311887047000000003F
:1001C00006480068006880F3088862B661B6BFF32D
:1001D0004F8FBFF36F8F00DF00BF00BF08ED00E05F
:1001E000DFF80C00016841F470010160704700BF46
:1001F00088ED00E0EFF30980BFF36F8F134B1A68AF
:100200001EF0100F08BF20ED108A20E9F04F10609B
:1002100008B44FF0500080F31188BFF34F8FBFF345
:100220006F8F0FF0C9FF4FF0000080F3118808BCFA
:1002300019680868B0E8F04F1EF0100F08BFB0EC66
:10024000108A80F30988BFF36F8F70471000002079
:10025000EFF30580704700000648804706480047D6
:10026000FEE7FEE7FEE7FEE7FEE7FEE7FEE7FEE766
:10027000FEE7FEE7597000088901000840EA010323
:100280009B0703D009E008C9121F08C0042AFAD24C
:1002900003E011F8013B00F8013B521EF9D2704710
:1002A000D2B201E000F8012B491EFBD270470022B8
:1002B000F6E710B513460A4604461946FFF7F0FF65
:1002C000204610BD421C10F8011B0029FBD1801AEA
:1002D000704710B5002200E0521C835C8C5CA34286
:1002E00001D1002BF8D1D8B2E1B2401A10BD2DE9EE
:1002F000FE4F804681EA0300C00F0C46009021F0BB
:10030000004123F00045B8EB0200A94105D2404668
:10031000214690461C460B46024623F000401043FF
:1003200047D0270DC7F30A00C3F30A510290401AC1
:10033000019040286BDAC3F3130040F4801B00984F
:10034000924620B10023D2EB030A63EB0B0B01981A
:100350005946C0F14002504600F0FDF906460D46F0
:1003600050465946019A00F005FA10EB0800614129
:10037000002487EA115284EAE7731A4340D0009AB6
:1003800062B3019A012A4FEA075215DC001B61EBA8
:1003900002014FF0004202EA0752CDE90042001C80
:1003A00041F5801132462B4600F03CFA03B0BDE81F
:1003B000F08F40462146F9E7001B61EB0201001C6B
:1003C00041F5801300185B412018A2F5001747EB98
:1003D000030140EAD570B6196D4111E06D084FEA8E
:1003E000360645EAC0754FEA0752001B61EB020171
:1003F000001C41F5801149084FEA300000195141B5
:1004000032462B4603B0BDE8F04F00F0FCB900982F
:10041000012240000023D0EB020263EBE07300985E
:1004200021464FEAE074B8EB000061EB0401E9E714
:1004300083F000435BE781F0004158E72DE9FE4F70
:1004400081EA030404F0004421F0004100944FF0DD
:10045000000B23F0004350EA01045ED052EA03048B
:100460005BD0C3F30A54C1F30A552C44A4F2F3340D
:100470000194A0FB0254C1F3130141F48011C3F3B2
:10048000130343F4801301FB024400FB034E840A70
:10049000970A44EA815447EA8357A4FB0768029508
:1004A0008D0A05FB07854FEA932C04FB0C542705A6
:1004B000029D4FEA065847EA1637B5EB08056EEB82
:1004C000070C870E920E47EA811742EA8312A7FBB8
:1004D0000201B6EB0B0164EB00042B0D43EA0C3375
:1004E0005E1844EB1C50DA465146E7FB0201C5F3A7
:1004F00013044FEA0B3343EA14534FEA0432019CCE
:1005000043EA0603A4F10C040294009CCDE900B474
:1005100000F088F903B0BDE8F08F00200146F9E74C
:100520002DE9F04D81EA030404F0004B21F0004571
:1005300014464FF0000A23F0004150EA050220D093
:1005400054EA01021DD0C5F30A570246C5F313034E
:10055000C1F31300C1F30A5640F4801543F480132D
:10056000A7EB0608101BD64608F2FD3873EB050012
:1005700002D308F1010801E092185B41B8F1000FC5
:1005800003DA00200146BDE8F08D00204FF4801111
:10059000064684460EE0171B73EB050705D3121BB6
:1005A00063EB050306434CEA010C49084FEA3000AF
:1005B00092185B4150EA0107EDD152EA030012D0D4
:1005C00082EA040083EA0501084305D0101BAB4111
:1005D00006D20122002306E000224FF0004302E091
:1005E0006FF0010253101AEB06004CEB085110EBB0
:1005F0000A0041EB0B01BDE8F04D00F004B90EB567
:10060000C10F80EAE0700844CA07002140F233437A
:100610008DE80E000A460B4600F004F903B000BD59
:100620000EB540F2334102910021CDE900110A4696
:100630000B4600F0F7F803B000BD00F0004230F0C8
:1006400000400AD0C10D01F56071C0F3160042EA06
:100650000151C2084007114370470020014670470E
:1006600030B5041E71F1000404DB4FF00044404239
:1006700064EB0101141E73F1000405DB1C464FF00E
:100680000043524263EB0403994208BF904230BDDD
:1006900001F0004330B421F0004150EA010206D0DD
:1006A0000A0DA2F56072C1F31301002A02DC30BC0E
:1006B00000207047440F44EAC104C100E01830BC78
:1006C00000EBC25000F068B830B50B460146002080
:1006D0002022012409E021FA02F59D4205D303FA04
:1006E00002F5491B04FA02F52844151EA2F1010285
:1006F000F1DC30BD2DE9F05F0546002092469B46B7
:1007000088460646814640241BE028464146474627
:10071000224600F067F953465A46C01A914110D359
:1007200011461846224600F016F82D1A67EB01080C
:100730004F4622460120002100F00DF817EB00097A
:100740004E41201EA4F10104DFDC484631462A4612
:100750004346BDE8F09F202A04DB203A00FA02F16C
:10076000002070479140C2F1200320FA03F319439F
:1007700090407047202A06DBCB17203A41FA02F05E
:1007800043EAE07306E041FA02F3D040C2F12002EE
:1007900091400843194670470029A8BF7047401C84
:1007A000490008BF20F00100704710B4B0FA80FC87
:1007B00000FA0CF050EA010404BF10BC704749B1C4
:1007C000CCF1200421FA04F411FA0CF118BF012134
:1007D00021430843A3EB0C01CB1D4FEA00614FEA14
:1007E000102042BF002010BC704700EBC3501044E3
:1007F0000029A4BF10BC7047401C490008BF20F06E
:10080000010010BC704710B5141E73F1000408DA23
:10081000401C41F1000192185B411A4301D120F0C4
:10082000010010BD2DE9F04D92469B4611B1B1FA81
:1008300081F202E0B0FA80F220329046FFF78BFF9F
:1008400004460F4640EA0A0041EA0B0153465A4665
:10085000084313D0114653EA010019D0C8F14002F1
:10086000504600F0BFF805460E46504659464246EF
:10087000FFF771FF084305D0012004E02046394608
:10088000BDE8F08D0020054346EAE0762C4337436F
:100890000A986305E40AA0EB08000022FD0A44EA76
:1008A00047540A3002D500200146E9E70105101936
:1008B0006941DDE9084500196941BDE8F04DA2E74D
:1008C00070B521F0004303430CD0C1F30A55002456
:1008D000D5EB040564EB0403D617AD1AB34102DB74
:1008E0000020014670BD201841EB025170BD2DE97A
:1008F000F04D00231A461B1A8A4103DB00200146F3
:10090000BDE8F08DC1F30A52C1F3130141F4801523
:100910004FF0000BD10702D100186D41521E002785
:10092000044640F2FF11384601EB620A3E4680461B
:10093000024600204FF4801100F054F8C2197141B2
:10094000BB1846EB0100B4EB030C75EB000C04D3B1
:10095000E41A65EB000517460E46241908F101005C
:100960006D4180463428E3DDF91946EB0600091B8A
:10097000A84103D24FF0FF32134601E00022134694
:100980001BEB070046EB0A51BDE8F04DFFF73BBFFC
:10099000C1F30A52C1F3130140F2FF3341F4801155
:1009A0009A4202DA00200146704740F233439A42ED
:1009B000A2F2334202DC524200F014B8FFF7CBBE81
:1009C000064C074D06E0E06840F0010394E807009C
:1009D00098471034AC42F6D3FFF7DAFB502D0108EC
:1009E000702D0108202A04DB203A21FA02F00021B0
:1009F000704721FA02F3D040C2F12002914008432F
:100A00001946704770B5C1F30A5201F00045002441
:100A1000C1F3130140F2FF3341F480119A4201DA2D
:100A2000002070BD40F233439A42A2F2334203DC0D
:100A30005242FFF7D7FF00E090402C43F1D04042F4
:100A400070BD70B58C1810F8015B15F0070301D16B
:100A500010F8013B2A1106D110F8012B03E010F821
:100A6000016B01F8016B5B1EF9D12B0705D4002344
:100A7000521E0DD401F8013BFAE710F8013BCB1AE6
:100A8000921C03E013F8015B01F8015B521EF9D5DB
:100A9000A142D8D3002070BD70B58CB001210220D6
:100AA00005F01CFB032501268DF81C50002406963A
:100AB0008DF81F4006A91D4801F02CFF01210420DC
:100AC00005F00CFB042006908DF81C508DF81F409B
:100AD00006A9174801F01EFF01210D02284605F066
:100AE00021FB0121284605F029FB0021284605F0BD
:100AF00025FB089428020B94CDE9090408A800F00E
:100B00008DF88DF8044000948DF80540029404940B
:100B1000084C8DF814606946204600F0B3F80121B6
:100B2000204600F071F80CB070BD000000040240D7
:100B30000008024000200140F0B58DB001210420E2
:100B400005F0CCFA03252E4F02268DF81C50002408
:100B500006968DF81F4006A9384601F0DBFE0121FC
:100B6000042005F0BBFA082006908DF81C508DF883
:100B70001F4006A9384601F0CDFE01214D0228464E
:100B800005F0D0FA0121284605F0D8FA00212846C0
:100B900005F0D4FA0894E8010B94CDE9090408A8FB
:100BA00000F03CF801200094029404948DF80400B5
:100BB000144C8DF805008DF814606946204600F04D
:100BC00061F8072301220B21204600F081F807235A
:100BD00002220D21204600F07BF80121204600F082
:100BE0003DF80121204600F00FF800F0B1F8012196
:100BF000204600F029F8204600F0A4F80DB0F0BD22
:100C000000080240002101400029816802D041F023
:100C1000010101E021F0010181607047084B10B52E
:100C2000D3F8042307490A40D0E900142143D0E94E
:100C30000240044321431143C3F8041310BD0000D4
:100C400000200140E030FCFF0029816802D041F41F
:100C5000807101E021F48071816070470029816812
:100C600002D041F4007101E021F40071816070470D
:100C7000C06C80B270470246002012680A4200D061
:100C80000120704730B542680F4B0C791A400B6851
:100C900042EA04221343436082680C4B4D791A40A8
:100CA000D1E9034323438C6844EA450423431343B7
:100CB0008360C26A097D22F47002491EC9B242EA09
:100CC0000151C16230BD0000FFFEFFFCFDF7FFC017
:100CD00070B5072609290AD9C568A1F10A0404EBF1
:100CE0004404A640B543A3401D43C56007E0056921
:100CF00001EB4104A640B543A3401D4305611F23FA
:100D0000072A09D2446B521E02EB820293409C4395
:100D100091400C43446370BD0D2A09D2046BD21F6D
:100D200002EB820293409C4391400C43046370BDEC
:100D3000C46A0D3A02EB820293409C4391400C43FB
:100D4000C46270BD816841F08041816070470000DD
:100D500010B5012190B0880505F0C0F9174C204668
:100D600000F080FF204601F00FF80028FAD14FF084
:100D70000070009012480190124802900020A021BB
:100D8000CDE903014FF48061CDE9050149000791E8
:100D900089000891491109914902CDE90A100321FE
:100DA000CDE90C100E906946204600F0F5FF0121B8
:100DB000204600F04DFF10B010BD00005864024006
:100DC0004C210140E87E0020002141708170C170FB
:100DD0000171017070470000F0B5434B87B0434A82
:100DE000D868401CD860642801D2012806D10120AF
:100DF000D86092ED170A0FF01DFA986092ED080A7C
:100E0000DFED3B0A20EE200ABDEEC00A10EE100A0C
:100E1000002800DA404292ED0B0A20EE200ABDEED7
:100E2000C00A10EE101A002900DA49425C7824B397
:100E30000026304C5E700025E778012F1FD02E4C25
:100E4000002E41D0B4F92230B4F92020B4F91E109C
:100E50002AA00AF083F82D4C2078002842D02C4894
:100E6000007800283AD02B48C178009183784278E6
:100E7000017829A00AF072F833E00126D9E72C495D
:100E80002A489FED2C1AC2C9436BCDE90267CDE910
:100E90000413D0ED070A90ED080A60EE810ABDEE5A
:100EA000C00AFDEEE00ACDED000A8DED010A90EDDD
:100EB0000B0A536E126EBDEEC00A1FA010EE101A80
:100EC0000AF04CF8E570C6E7B4F91C200092CAB2EB
:100ED000C1B29B6820A00AF041F8BCE722A00AF04A
:100EE0003DF8257007B0F0BD7C0100200C86002085
:100EF0000000C842ED000020608700207B4225648E
:100F00003A25643A25647D24000000009901002000
:100F100098010020A80100207B2349503A25642E27
:100F200025642E25642E25647D2400009C860020E7
:100F3000DC7E002000007A447B4325643A25643A35
:100F400025643A25643A25643A25643A25643A25AD
:100F5000643A25647D2400007B4125643A25643A87
:100F600025643A25647D24007B2349503A756E6BD5
:100F70006E6F772E2E7D2400F0B5224B0027197A54
:100F80005E7A491CCDB2711CCCB2D9792B2812D013
:100F900081B39A7903F1340C521CD2B20CEB810C60
:100FA0009A715CF804CC1CF802C084450CD11D7207
:100FB000222D06D01CE0491CD9719F711D725C72F4
:100FC00016E01F725F7211E00E4D2C3505EB8105A6
:100FD00055F8045CAA5C824203D001290BD10D2E86
:100FE00009D35C722C2C03D15F721F72DF719F7169
:100FF0000120F0BD03E01F725F72DF719F7100205E
:10100000F7E70000980100204FF4FA618160491071
:10101000C16040F2DC51416070470000F5EEC00A4B
:1010200010B5F1EE10FA44D0B5EEC00AF1EE10FAA8
:101030003FD080EE201A21489FED1F2AF6EE000ACD
:1010400090ED000AB5EEC01AF1EE10FA0ADD60EE7E
:10105000201AF4EEC11AF1EE10FA03DBB0EE421AD8
:1010600000EE201AB5EEC01AF1EE10FA0CD2FEEE28
:10107000001A60EE212AF4EEC12AF1EE10FA03D82C
:10108000B0EE421A10EE211AD0ED011A00EE601AED
:1010900081EE810A10EE100AFFF7CFFA41EC100B37
:1010A00009F096FF51EC100BFFF7F2FA00EE100A70
:1010B00010BD9FED030A10BD0AD7233C0C8600200B
:1010C000000000002DED028B82B00CF0CFFC654DCE
:1010D000DFF88881624C40F6B83940F2CE4AA5F17B
:1010E000380600279FED608A01900A2101A80EF0C2
:1010F000D9FD6068484501DA401C606001F00AFED5
:1011000000F010FD642009F0E7F805F031FB60689D
:10111000A0F2E931C7290AD2F0EE480AB0EE601A0F
:101120009FED520A01F09CF90DF038FF10E0A0F29B
:10113000B1401D280CD2B0EE480A01206870B0EE14
:10114000401AF0EE400A01F08BF94FF4FA7060811A
:101150006168514540DD607A58B9B078401CC0B232
:10116000B070642805D986ED018A86ED028A86ED85
:10117000038A98F806104046012905D030784107C7
:101180001BD501F059FD27E0417931B190ED0C1AE2
:10119000D0ED0B0A98ED0A0A1CE0017931B190ED0F
:1011A000091AD0ED080A98ED070A13E0B0EE480AD4
:1011B000B0EE401AF0EE400A0CE0010702D505F04F
:1011C000C5F809E0800702D504F052FE04E0301DA6
:1011D00090EC030A01F044F9287D01280CD16068E5
:1011E00040F21451884207DD642000F03DFE0128E2
:1011F0007FF47BAF2F7578E706F06CFC707005F01C
:101200006DFC707818B31748183004F0F5FB1548DA
:101210002C3004F0F1FB1348403004F0EDFB114892
:10122000543004F0E9FB00231A461946184600978B
:1012300005F036FD0E4801F0F3FA01280AD0DAD99C
:101240004FF00B014FF00A0000F016F84DE705F0E3
:10125000E7F9EFE764210120F6E70000288000208D
:10126000CC7D0020D486002000000000CDCC4C3E78
:10127000EF000020FEE7000030B50C4C23780A2B6D
:1012800001D3002030BD0A4D627805F8120005EB4D
:101290004200521C41700A20B2FBF0F100FB112009
:1012A00060705B1C2370012030BD0000C000002076
:1012B000608000201CB50121082004F00FFF4FF4CE
:1012C0000060009001208DF8040000248DF8064095
:1012D00003218DF805108DF807006946034801F0D9
:1012E00019FB0348C0F8AC421CBD0000000C0240D2
:1012F0000080414200EE102AB7EE001AF0B5F8EE79
:10130000400A01EB810300265B0081EE200ADFED3D
:10131000220A234F0143354620EE200ABCEEC00AC4
:1013200010EE104A1FFA84FC1C4C01D0634505D214
:101330003D81FD700120C4F8AC52F0BD00EE102AD2
:101340003989B8EE400AC1EE001A00EE101AB8EE64
:10135000400A01EEA00ABCEEC00A10EE101A89B2D3
:101360003981994203D20120C4F8AC0211E0B1EBFB
:10137000430F02D2C4F8AC520BE03D81F978491C0E
:10138000C9B2F970814204D1C4F8AC52FD70012099
:10139000F0BD3046F0BD000000007A4400804142BC
:1013A000C00000202DE9F041264C06462DED028BB1
:1013B00004F10A05A079B0B92078A0B121790129FA
:1013C00011D1214AA17812F8113002EB41022B70A1
:1013D00052786A700A22491CB1FBF2F302FB131126
:1013E000A170401E2070697828783246FFF782FF8E
:1013F0000027207101281FD0A079002818D060791B
:10140000401CC5B265713046FFF70AF99FED0F1B0E
:1014100053EC112BFFF712F841EC180B2846FFF79D
:10142000FFF853EC182BFFF71BF901D86771A77170
:10143000BDEC028BBDE8F0812F706F700120A071B0
:10144000DDE70000C00000206080002000000000F8
:101450000000E03F2DE9F04788B09946DDF840A054
:10146000F0B3E9B3E2B3B9F1000F53D0A0F1010832
:101470004E1E571E01F016FA0121480604F046FEE2
:1014800000248DF806408DF807408DF804708DF823
:10149000084001258DF805608DF809508DF802A0EF
:1014A0001D4E8DF80A408DF803808DF80B40ADF885
:1014B00000906946304600F0A1F98DF816408DF88D
:1014C00017408DF81850ADF80C40ADF81040ADF84D
:1014D0000E40ADF81240ADF814408DF8195000E000
:1014E00018E003A800F01CF901220221304600F0A8
:1014F0007DF914208DF81C0003208DF81D008DF857
:101500001E408DF81F5007A803F09EFD002008B074
:10151000BDE8F0870120FAE70064004000B587B01D
:101520006A460021304800F0DDF9DDF80B00059037
:10153000DDF80F0006909DF80800C0B1042814D112
:101540000198012811D02949C8420ED1002108462E
:1015500005AA135C401C1944C0B2C9B20828F8D3CC
:10156000082902D122490120087207B000BD009865
:101570000022A0F58070813808D00128F5D11D48DF
:1015800080F8342005A802F043FAEEE71A490878FB
:10159000C30601D4102008708A70BDF8140040BA48
:1015A00000B200EE100AF8EEC00A9FED140A80EEB9
:1015B000801A81ED011ABDF8160040BA00B200EEA3
:1015C000900AF8EEE00A80EE801A81ED021ABDF86A
:1015D000180040BA00B200EE900AF8EEE00A80EE81
:1015E000801A81ED031AC0E70064004088A9CBEDA2
:1015F000CC7D0020288000209C86002000007A44BA
:101600007CB5194C00206D462118097E2954401CD8
:10161000C0B20828F8D3294640F2011000F054F86F
:101620000020211891F820102954401CC0B208282D
:10163000F7D369464FF4817000F046F80020211876
:1016400091F828102954401CC0B20828F7D36946E5
:1016500040F2031000F038F80448007A012801D164
:1016600000F088F97CBD000020890020CC7D00209E
:1016700070B586B0134E019004208DF8080000204C
:101680008DF8090008208DF80A000868CDF80B00D5
:101690004868CDF80F006946304600F0ADF94FF6C6
:1016A000FF7501E0641CA4B23946304600F004FA2C
:1016B00008B9AC42F6D3AC4202D3012006B070BDEB
:1016C0000020FBE70064004070B586B0134E009028
:1016D00000208DF808008DF8090008208DF80A0018
:1016E0000868CDF80B004868CDF80F006946304611
:1016F00000F082F94FF6FF7501E0641CA4B2394690
:10170000304600F0D9F908B9AC42F6D3AC4202D366
:10171000012006B070BD0020FBE70000006400401F
:10172000F0B5827A2F4D012191402A6842F00102E2
:101730002A602C4E1C3632688A433260294A047B68
:10174000294B0C32A4B914688C4314604488C788B0
:1017500044EA0744877A03EBC707C7F84046048882
:10176000878844EA0744877A03EBC707C7F84446EB
:10177000047B012C12D114680C431460847A026833
:1017800003EBC4044FEA3242C4F84026847A42682C
:1017900003EBC4034FEA3242C3F84426114AC37A2A
:1017A000121D002B136806D00B4313600D4A0389EA
:1017B000143213B104E08B43F7E713688B431360D3
:1017C0000389012B02D113680B431360407B01286E
:1017D00002D1306808433060286820F0010028609A
:1017E000F0BD00000066004000600040002A426931
:1017F00001D00A4300E08A434261704710B5036894
:10180000002223F002030360036843F00103036036
:101810004FF6FF7300E0521C4468E40701D19A427E
:10182000F9D14268D2073ED08A79012A02683CD0B9
:1018300022F080020260CA79012A026838D022F0C0
:10184000400202600A7A012A026834D022F02002A3
:1018500002604A7A012A026830D022F01002026047
:101860008A7A012A02682CD022F008020260CA7A21
:10187000012A026828D022F0040202608A78CC781B
:10188000920742EA04620C7942EA04424C790988E0
:1018900042EA0452491E0A43C261016821F0010173
:1018A0000160002114E0002010BD42F08002C1E779
:1018B00042F04002C5E742F02002C9E742F01002C0
:1018C000CDE742F00802D1E742F00402D5E7491C17
:1018D0004268D20701D09942F9D14068C007E2D1ED
:1018E000012010BD10B500EB0113D3F8B04114F086
:1018F00004041472D3F8B04133D0E4085460D3F830
:10190000B04104F002045472D3F8B44104F00F045F
:101910009472D3F8B441240AD474D3F8B841D47281
:10192000D3F8B841240A1473D3F8B841240C547383
:10193000D3F8B841240E9473D3F8BC41D473D3F8D0
:10194000BC41240A1474D3F8BC41240C5474D3F859
:10195000BC311B0E937439B1016941F02001016162
:1019600010BD640D1460CAE7C16841F02001C16078
:1019700010BD00001CB500208DF800001C48DFEDF4
:101980001D0A90ED040A20EE200ABDEEC00A10EEFA
:10199000101A09128DF8011010EE101A8DF80210AD
:1019A00090ED050A20EE200ABDEEC00A10EE101AD6
:1019B00009128DF8031010EE101A8DF8041090ED36
:1019C000060A20EE200ABDEEC00A10EE101A091217
:1019D0008DF8051010EE101A8DF80610007A8DF8AB
:1019E0000700694640F20510FFF76EFE1CBD0000BF
:1019F0002880002000007A4430B502460020936819
:101A00005B0108D49068000101D5012003E09068D3
:101A1000C00044D5022002EB0012D2F8803103F05E
:101A20000103C2F880310B7AC3B3D2F880414D680C
:101A30001C434B7A43EAC5031C43C2F880418B7AAE
:101A400003F00F038B72D2F8843123F00F03C2F836
:101A50008431D2F884318C7A2343C2F88431CB7A32
:101A60008C7B0D7B43EA04634C7B240444EA05240D
:101A70002343C2F88831CB7B8C7C43EA04634C7CE3
:101A8000097C240444EA01210B43C2F88C31D2F8CA
:101A9000801141F00101C2F8801130BD01E0042045
:101AA000FBE7D2F880314C7A23430C8843EA445355
:101AB000C2F88031C3E70000002221B1012905D01E
:101AC000022906D112E08268114801E082681148BB
:101AD00002401149501A8A4214D00ADCA2B16FF0B8
:101AE000806010180FD002280CD10FE082680B48DC
:101AF000EEE7B0F5007F09D00949401803D0B0F5F2
:101B0000003F03D00020704702207047012070473B
:101B10000300000400030008000100080000031097
:101B20000001FFF770B51D4C1D4E0025A07901285E
:101B300004D1307A10B9A57100F010FE307A012876
:101B400019D194F83400401CC0B284F834006428E1
:101B500004D90BF093FD652084F834001148124934
:101B6000C06D884207DA207928B11048017A11B196
:101B700005720120A0710E48018A491C89B20182B8
:101B80000A2909D90B21018240F2DC514FF47A7203
:101B90000160C0E90112C16070BD00002880002012
:101BA000CC7D00200C8600200000A04140010020D8
:101BB000EC840020034610B50020024603E09C5C44
:101BC0006040521C92B28A42F9D310BD0349898801
:101BD000C140C80700D0012070470000100100205C
:101BE000174A032809D01346DFED160A93ED0B0AB6
:101BF000082809D00A280ED015E0012913D112496E
:101C00000120096808740EE0022901D001290AD1D7
:101C100030EE600A05E0022901D0012903D130EE3F
:101C2000200A82ED0B0A92ED0B0AB5EEC00AF1EE26
:101C300010FA03D29FED050A82ED0B0A70470000EF
:101C40009C86002000004842F800002000000000B0
:101C50000029016802D041F0010101E021F00101F9
:101C6000016070472DE9F043016821F00101016036
:101C70000021016041608160C160016121214161F9
:101C80003C493C4A3D251039904202D18D60BDE867
:101C9000F083384A4FF474661832904201D18E6056
:101CA000F5E7344A4FF474173032904201D18F6017
:101CB000EDE7304A4FF0746C4832904202D1C1F8DF
:101CC00008C0E4E72B4B2C4A6033984201D1CA602C
:101CD000DDE7284C294B7834A04201D1CB60D6E710
:101CE000DFF89080264C08F19008404501D1CC6087
:101CF000CDE7DFF880804FF03D5908F1A808404556
:101D000002D1C1F80C90C2E71E49DFF8788008398B
:101D1000404501D10D60BAE71A4D1835A84201D1EE
:101D20000E60B4E7174D3035A84201D10F60AEE721
:101D3000144D4835A84202D1C1F800C0A7E7114DA3
:101D400010496035091FA84201D10A609FE70D4A7A
:101D50007832904201D10B6099E70A4A9032904262
:101D600001D10C6093E7074AA83290428FD1C1F8A5
:101D700000908CE7106002403D000020400F0020E2
:101D800000003D2010640240014600200968C90798
:101D900000D001207047000030B50368124ACC68BB
:101DA00013400A682243D1E905452C432243CC69FC
:101DB00022430C6A22434C6A22438C6A22434C6BB6
:101DC00022438C6B22431A430260426922F00703CC
:101DD000D1E90B2422431A4342610A6942604A68EE
:101DE00082608968C16030BD3F801CF070B50446D8
:101DF0000020024604EB8001401CC1F8882910280D
:101E0000F8D300204FF400652118401C81F81C21F4
:101E1000A842F9D3227062700120A070C4F8C829CA
:101E200020764021A171627684F81C2984F81D096E
:101E300084F81F29010284F81E2904F11C00FEF712
:101E400036FA294604F58E70FEF731FA122104F6AF
:101E50002610FEF72CFA3E2104F63810FEF727FA7A
:101E6000002070BD704700002DE9F84FDFF8908228
:101E700007460026D8F82800DFF888B2401CC8F8CA
:101E8000280001280CD1DBF8000008B10EF024F97D
:101E90009D499E480BF0D2FB14210120FFF7ECF97D
:101EA000D8F828009FED9A0ADFF86892DFF868A258
:101EB0009A4C0025F6EE000AB0EB470F0CD2C4EDA9
:101EC000070A84ED0A0A84ED0D0A84ED100A04F075
:101ED000A7FB09F104006FE05FD18C4D90A128466B
:101EE0000BF0ACFB94ED080A984910EE100A01447F
:101EF0009748814201D297A14AE0012088F8090061
:101F000010EE100A9749884205D997A128460BF090
:101F100095FB9D493CE0D4ED0B0A5046F0EEE00AFB
:101F200010EE901A814205DD98A128460BF086FB41
:101F3000A6492DE0D4ED0E0AF0EEE00A10EE901A5C
:101F4000814205DDA2A128460BF078FBB0491FE0D5
:101F5000D4ED110AF0EEE00A10EE901A514505DDBD
:101F6000ACA128460BF06AFBBA4911E0B0EEC00AFA
:101F700010EE100AB84988420DDAB848816841F27B
:101F80008830814207DDB6A128460BF057FBC249D5
:101F900028460BF053FBC1A176E0B0EB870F12D2BD
:101FA00084ED070AC4ED0A0A84ED0D0A84ED100AD7
:101FB00004F036FB574808300560C9F80050554812
:101FC000001F056098E073D1504DC0A128460BF06A
:101FD00035FB94ED0B0A5D4910EE100A01445C4894
:101FE000814201D2C4A14BE0012088F8090010EE23
:101FF000100A5C49884205D9C3A128460BF01EFB94
:10200000C9493DE0D4ED080A5046F0EEE00A10EE72
:10201000901A814205DDC5A128460BF00FFB6B49E4
:102020002EE0D4ED0E0AF0EEE00A10EE901A814296
:1020300005DDCEA128460BF001FBDC4920E0D4ED04
:10204000110AF0EEE00A10EE901A514505DDD8A114
:1020500028460BF0F3FAE64912E0B0EEC00A10EEA3
:10206000100A7D4988420EDA7C481430816841F2BA
:102070008830814207DDDFA128460BF0DFFAEB490B
:1020800028460BF0DBFAEAA128460BF0D7FA734892
:1020900003F0B2FC7148143003F0AEFC6F482830F6
:1020A00003F0AAFC6D483C3003F0A6FC24E0FFE7F7
:1020B00084ED070A84ED0A0A002384ED0D0A84EDFD
:1020C000100A01261A4619461846009504F0E8FD44
:1020D0007CA10E480BF0B2FA14210120FFF7CCF8D6
:1020E00098F8090020B9DBF8000008B10DF036FFC0
:1020F000C8F8285088F809503046BDE8F88F00002D
:102100004001002094010020A8280108001001408F
:102110000000000038040140CDCC4C3E0C8600206D
:102120003D3D3D3D3D3D3D3D3D3D3D3D3D3D3D3DDF
:102130003D20B5E7BBFA41203D3D3D3D3D3D3D3DA8
:102140003D3D3D3D3D3D3D3D0D0A0000323333C137
:10215000CCCC4C00B5E7BBFA41D5FDB3A32E0D0A9C
:1021600000000000CDCC4CBEBCECB2E2B5BD41B528
:10217000E7BBFAB1E0C2EBC6F7BCABD0D4B4EDCE4E
:10218000F32E0D0A00000000282C0108C7FDB6AF91
:10219000B5E7BBFA41CAB12CBCECB2E2B5BDB1E0C7
:1021A000C2EBC6F7BDD3BFDA42B5C4D0C5BAC52E9F
:1021B0000D0AD7D4BCECCAB1B5E7BBFA41CAC7B760
:1021C000F1D7AAB6AF3F0D0A00000000F8280108B9
:1021D000C7FDB6AFB5E7BBFA41CAB12CBCECB2E261
:1021E000B5BDB1E0C2EBC6F7BDD3BFDA43B5C4D0CD
:1021F000C5BAC52E0D0AD7D4BCECCAB1B5E7BBFA37
:1022000041CAC7B7F1D7AAB6AF3F0D0A0000000018
:1022100048290108C7FDB6AFB5E7BBFA41CAB12CE2
:10222000BCECB2E2B5BDB1E0C2EBC6F7BDD3BFDADC
:1022300044B5C4D0C5BAC52E0D0AD7D4BCECCAB1BA
:10224000B5E7BBFA41CAC7B7F1D7AAB6AF3F0D0A87
:1022500000000000382A0108CDCC4C3DEC8600205F
:10226000C7FDB6AFB5E7BBFA41CAB12CCEB4BCECE2
:10227000B2E2B5BDB1E0C2EBC6F7D0C5BAC52E0D0E
:102280000AD7D4BCECCAB1B5E7BBFA41CAC7B7F1AB
:10229000D7AAB6AF3F0D0A00282B01083D3D3D3DB2
:1022A0003D3D3D3D3D3D3D3D3D3D3D3D3D20B5E759
:1022B000BBFA41203D3D3D3D3D3D3D3D3D3D3D3D2C
:1022C0003D3D3D3D0D0A0D0A000000003D3D3D3DF8
:1022D0003D3D3D3D3D3D3D3D3D3D3D3D3D20B5E729
:1022E000BBFA42203D3D3D3D3D3D3D3D3D3D3D3DFB
:1022F0003D3D3D3D0D0A0000B5E7BBFA42D5FDB3BB
:10230000A32E0D0A00000000BCECB2E2B5BD42B540
:10231000E7BBFAB1E0C2EBC6F7BCABD0D4B4EDCEAC
:10232000F32E0D0A000000008C2C0108C7FDB6AF8B
:10233000B5E7BBFA42CAB12CBCECB2E2B5BDB1E024
:10234000C2EBC6F7BDD3BFDA41B5C4D0C5BAC52EFE
:102350000D0AD7D4BCECCAB1B5E7BBFA42CAC7B7BD
:10236000F1D7AAB6AF3F0D0A00000000C7FDB6AF17
:10237000B5E7BBFA42CAB12CBCECB2E2B5BDB1E0E4
:10238000C2EBC6F7BDD3BFDA43B5C4D0C5BAC52EBC
:102390000D0AD7D4BCECCAB1B5E7BBFA42CAC7B77D
:1023A000F1D7AAB6AF3F0D0A00000000C02901080E
:1023B000C7FDB6AFB5E7BBFA42CAB12CBCECB2E27E
:1023C000B5BDB1E0C2EBC6F7BDD3BFDA44B5C4D0EA
:1023D000C5BAC52E0D0AD7D4BCECCAB1B5E7BBFA55
:1023E00042CAC7B7F1D7AAB6AF3F0D0A0000000036
:1023F000B02A0108C7FDB6AFB5E7BBFA42CAB12C97
:10240000CEB4BCECB2E2B5BDB1E0C2EBC6F7D0C50C
:10241000BAC52E0D0AD7D4BCECCAB1B5E7BBFA4297
:10242000CAC7B7F1D7AAB6AF3F0D0A00A82B01085B
:102430003D3D3D3D3D3D3D3D3D3D3D3D3D3D3D3DCC
:102440003D20B5E7BBFA42203D3D3D3D3D3D3D3D94
:102450003D3D3D3D3D3D3D3D0D0A0D0A0000000066
:1024600010B53A4CB0EE412A2DED028BF0EE602A09
:1024700094ED0C1AF1EE410A0DF02AFA94ED0C1AC3
:10248000F0EE401AB0EE620AF1EE410A0DF020FAC9
:1024900094ED0C1AF0EE408AB0EE420AF1EE410AD9
:1024A0000DF016FA2A48B0EE408A8079B8B3C4ED30
:1024B000041AC4ED058A84ED068AF0EE480A94ED0C
:1024C000040A02F06BF80121606B0DF0DFFEB0EE44
:1024D000408A0021606B0DF0D9FE94ED0C1A1D4866
:1024E000F0EE401AF1EE410A90ED070A0DF0F0F916
:1024F00080ED070A94ED0C1A90ED0A0AF1EE410AFC
:102500000DF0E6F9D0ED070A20EE210A60EE880A08
:10251000C0ED070A80ED0A0ABDEC028B10BDFFE793
:1025200094ED071A94ED040AF0EE610A08F0F6F84B
:1025300084ED040A94ED071A94ED050AF0EE680A9A
:1025400008F0ECF884ED050AB5E700009C86002051
:10255000288000200C8600201CB50121102003F0EB
:10256000BDFD1020009000208DF8040003208DF8A0
:10257000050001208DF807006946024800F0CAF9FD
:102580001CBD00000010024008B50121084603F000
:10259000BDFD0121084603F0B9FD0121022003F031
:1025A000B5FD4FF08040C11300900823024A034854
:1025B00000F020F808BD00000004024000000240C6
:1025C00008B50121022003F0A1FD0121084603F016
:1025D0009DFD0121084603F099FD04480090044840
:1025E00080230246402100F005F808BD00040040A9
:1025F000000002402DE9FF4F89B04FF003098DF82C
:1026000005904FF0020A8DF804A04FF001080F4624
:1026100000918DF806801E469346169C8DF8078023
:102620006946099800F076F98DF805908DF804A0B8
:102630008DF8068000968DF807806946584600F0B0
:1026400069F93A4884420DD0B4F1804F0AD0384835
:10265000844205D03748844202D03748844203D1AF
:10266000022519E0012517E03448844208D0344897
:10267000844205D03348844202D03348844201D199
:10268000032509E03148844205D03148844202D014
:102690003048844200D10925002127FA01F0C00703
:1026A00003D1491CC9B21029F7D32A46099800F072
:1026B000EBF9002126FA01F0C00703D1491CC9B289
:1026C0001029F7D32A46584600F0DEF902A805F093
:1026D000C5F800254FF6FF70ADF808500390ADF82F
:1026E0001050ADF80A5002A9204605F079F80023F1
:1026F0001A460321204604F08CFE05A804F00CFFC6
:10270000ADF81C5005A9204604F0B0FE012120467A
:1027100004F064FE0021204605F038F8012120462F
:1027200004F062FE0DB0BDE8F08F00000000014033
:102730000004004000080040000C0040000401407C
:1027400000400140004401400048014000180040A2
:10275000001C00400020004072B6FEE71CB505A03A
:10276000D0E90010CDE9001069460448FEF780FF6B
:102770001CBD000001010101010101017856341264
:1027800010B5002003F0DCFD214C411C00D0E060BE
:10279000012003F0D5FD411C00D06060022003F051
:1027A000CFFD411C00D0A060032003F0C9FD194CEF
:1027B000411C00D06063042003F0C2FD411C00D026
:1027C000E06294ED0B0AB5EEC00AF1EE10FA04D304
:1027D00010EE100A1049884203DD9FED100A84EDC7
:1027E0000B0A052003F0ACFD411C4FF0FF3402D072
:1027F000214604F0AFFA062003F0A2FD0146401C7A
:1028000004D02046BDE8104004F0A4BA10BD00007A
:10281000D87E00209C86002000401C460000FA4321
:1028200010B50178002488B0012920D10021017061
:102830000DF0BCF81C216846FDF739FD0D48C16854
:10284000009141680191806802900B48416B0391AF
:10285000C06A04900948016E0591406E06900721F8
:10286000684608F0C1F9401CC4B20DF0DBF808B0AE
:10287000204610BDD87E00209C8600200C860020BB
:102880001CB50022009102218DF804108DF806205D
:1028900003228DF805208DF80710694600F03AF8FC
:1028A0001CBD00002DE9FC410121082003F016FCAD
:1028B0000121082003F012FC02248DF804400026B8
:1028C0008DF806600327DFF848808DF80570012534
:1028D00000948DF807506946404600F01BF88DF8CB
:1028E00004408DF806608DF8057000958DF807504E
:1028F0006946404600F00EF809220121404600F0EA
:10290000C3F809220021404600F0BEF8BDE8FC8172
:10291000000C0240F0B5002201274FF0030C0B68B9
:1029200007FA02F52B40AB422CD1066853000CFA93
:1029300003F4A64306600E79D0F800E09E4046EA14
:102940000E0606600E79012E01D0022E12D1866885
:10295000A64386604E79D0F808E09E4046EA0E060F
:1029600086604668AE43466045688E799640B6B24A
:1029700035434560C568A543C560CC799C40C368B4
:102980001C43C460521C102AC9D3F0BD1CB50022E0
:10299000009101218DF804108DF806208DF8052096
:1029A0008DF807106946FFF7B5FF1CBDFEB5002581
:1029B0000C4606468DF808500AE09DF8080024FAF7
:1029C00000F0C00708D19DF80800401C8DF80800F1
:1029D0009DF808001028F0D3204900208A420DD02D
:1029E000B2F1804F0AD01E498A4205D01D498A4261
:1029F00002D01D498A4203D1022019E0012017E0CC
:102A00001A498A4208D01A498A4205D019498A428D
:102A100002D019498A4201D1032009E017498A42AC
:102A200005D017498A4202D016498A4200D10920AE
:102A30009DF808100246304600F026F802208DF876
:102A400004008DF8065001218DF807108DF805005F
:102A5000009469463046FFF75DFFFEBD000001406F
:102A60000004004000080040000C00400004014049
:102A7000004001400044014000480140001800406F
:102A8000001C0040002000404B07DB0E9A40C908A4
:102A900010B500EB8100016A0F249C40A143016244
:102AA000016A1143016210BD0183704730B40B46C7
:102AB000002123FA01F4E40703D1491CC9B210290B
:102AC000F7D3174CA2420DD0B2F1804F0AD0154C6B
:102AD000A24205D0144CA24202D0144CA24203D10F
:102AE000022319E0012317E0114CA24208D0114C37
:102AF000A24205D0104CA24202D0104CA24201D1F9
:102B0000032309E00E4CA24205D00E4CA24202D093
:102B10000D4CA24200D1092330BC1A46FFF7B4BFC6
:102B2000000001400004004000080040000C00408C
:102B300000040140004001400044014000480140C1
:102B400000180040001C00400020004070B5D0403C
:102B500000F001000C460870097B002601250529BC
:102B60003AD2DFE801F00337091D330088B30DF0D6
:102B7000A5FF606002200AE00DF0A0FF6168401A26
:102B8000A060217829B1B0F57A7F25D9042020737F
:102B900022E032281FD30DF091FF60600320F6E79A
:102BA0000DF08CFF61684FF4C872401AA060217864
:102BB000012904D090420FD32573012070BD9042AB
:102BC000FAD2322808D92573022070BD257303205C
:102BD00070BD01E000B926730020F9E731B5072385
:102BE0009DF800100122094C2046FEF771F820469E
:102BF000FEF7A8F802212046FEF73DF80028F9D09C
:102C00002046BDE83840FEF733B800000020014000
:102C10002DE9F04100250E4607462C4605E03846D2
:102C2000FFF7DCFF641C0544E4B2B442F7D3B5FB04
:102C3000F6F080B2BDE8F08110B5B3EE0E0A0AF0EE
:102C4000EFFC2F48DFED2F0ABFEE001A41782E4827
:102C5000092950D2DFE801F04F05080A0F1A404950
:102C60004C0090ED0B0A15E0D0ED0B0AB1EE400AD6
:102C7000C0ED010A07E0D0ED0B0A20EE010AF1EEEB
:102C8000600AC0ED010A80ED030A07E090ED0B0A2F
:102C9000B1EE400A80ED010AC0ED030AD0ED010A51
:102CA0009FED1A1A9FED1A2A80EE810A80ED010A23
:102CB000D0ED021AC1EE810AC0ED020AD0ED0B1A66
:102CC00081EE821AD0ED031A21EE211A80ED031A4B
:102CD000BDE81040FFF7C4BBD0ED0B0A20EE410A5F
:102CE000F1EE600AC0ED010ACDE7C0ED010ACAE7C6
:102CF000D0ED0B0AF9E7C0ED010AC0ED020ACBE7FF
:102D0000ED000020000000009C86002000007A44B6
:102D10000000FA4370B500202DED028B03F0F0FAAD
:102D20000446012003F0ECFA344E05460121706B95
:102D30000DF0ACFAB0EE408A0021706B0DF0A6FAEF
:102D400006F13801487828B9486820444860886806
:102D5000401B8860642014FB00F000EE900A284CB1
:102D60006FF06300F8EEE00A94ED041AC0EE811AE9
:102D7000D4ED020A61EEA01A81EE882A84ED082AB9
:102D800015FB00F001EE900AF8EEE11A81EE812ABF
:102D900062EE200A80EE801A84ED0B1A0AF096FE8D
:102DA00000EE100A154A0021B8EEC00A0120283AA8
:102DB00084ED140ABDEEC00A10EE103A32F810503D
:102DC00002EB4006401CC0B226F8025C1428F5D382
:102DD000D384002032F91030401CC0B219441428AA
:102DE000F8D3142091FBF0F000B200EE100AB8EE18
:102DF000C00A84ED140ABDEC028B70BD9C860020D5
:102E00000C86002010B50820FFF7E8FEFDF708FC4F
:102E10009FED0B1B53EC112BFDF710FB9FED0A1BD5
:102E200053EC112BFDF70AFB9FED091B53EC112B03
:102E3000FDF704FBFDF72CFC00EE100A10BD0000AE
:102E40006666666666660A4000000000000026406E
:102E5000000000000000303FD0F8DC0306F0EFB8BF
:102E6000D0F8DC0306F001B9006806F0DFBD0068A9
:102E700006F0E0BDC1EB011100EB8100002200F87B
:102E80001A2F4270C272827210467047C1EB011154
:102E900000EB810090F84C007047C1EB011100EB92
:102EA0008100806B704710B5044690F8D403012868
:102EB00009D0012084F8D403206806F0C6FD002064
:102EC00084F8D40310BD022010BD2DE9FF4F83B05C
:102ED0000546DDE9117690F8D403DDF8408093468D
:102EE0008A4601281CD0CAEB0A10012305EB800496
:102EF00085F8D4334FF0000984F8199006982075AE
:102F000084F815A084F826700BF07F00A075514658
:102F10002846FFF7AFFF5FEA0B6005D5E37505E0D4
:102F2000022007B0BDE8F08F84F81790286806F0FB
:102F300081FD012F06D1B8F1010F03D110B9BC2ECC
:102F400000D9BC2684F81880B0B22085CDF8008066
:102F5000CDE9017028685A465146069B06F0E0FD0F
:102F600085F8D493DDE7D0F8DC0306F0F5B82DE959
:102F7000F0030E46DDE906C9DDE90874C1EB061170
:102F800000EB81010225CA7581F82630BCF1000FE3
:102F90000AD081F82A50002463B1012B31D0022BD2
:102FA00028D0032B16D125E04FF0030881F82A80A2
:102FB0004C76F0E7BCF1010F0CD11AB18A7E012AE0
:102FC00019D007E0D7B9012281F83D2000E0C2B155
:102FD00081F82A50C1F82C904F6381F84C408C63E3
:102FE0004E7581F84D4082790068BDE8F0031431D8
:102FF00006F026BE12B191F83C20E8E791F83D209A
:10300000E5E781F82A40E5E72DE9F041044600684C
:10301000064606F016FD012876D1206806F0CAFFA4
:10302000002871D0206806F0C5FF800203D5216812
:103030004FF400104861206806F0BCFFC00203D5C1
:1030400021684FF480104861206806F0B3FF40010A
:1030500003D521684FF080604861206806F0AAFF20
:10306000800702D5216802204861206806F0A2FF8F
:10307000800018D521684FF000504861D6F8400410
:10308000C00710D11021304606F090FC304606F003
:1030900071FC607A022803D10121206806F066FFE6
:1030A0002046FFF7DDFE206806F084FFC00102D550
:1030B000204600F01FFC206806F07CFF000705D5C5
:1030C000204600F0BAF8216808204861206806F020
:1030D00071FF800123D5206806F0AEFD074600256C
:1030E0004FF0010814E005F00F0108FA01F0384232
:1030F0000DD006EB4510D0F80005E9B200042046DB
:1031000003D500F0C6F802E01CE000F080FA6D1C68
:103110006079A842E7D821684FF0007048612068C4
:1031200006F048FFC043C0060CD42068816921F036
:1031300010018161204600F027FC2068816941F080
:1031400010018161BDE8F081F8B5040005D094F864
:10315000D5032568002610B106E00120F8BD84F8EB
:10316000D463204600F028F8032084F8D503B5F195
:10317000A04F00D1A671206806F0C8FB207C8DF816
:10318000000094E80F0006F061FB022560B9012100
:10319000206806F04BFF38B9207C8DF8000094E8D9
:1031A0000F0006F07BFE10B184F8D553D5E701205F
:1031B00084F8D5030020F8BD3EB50121084602F091
:1031C0008DFF0121802002F095FF4FF4C050009048
:1031D00002208DF8040003208DF80500104D002416
:1031E0008DF8074069462846FFF794FB0A220B2119
:1031F0002846FFF749FC0A220C212846FFF744FC29
:1032000043208DF8080005208DF809008DF80A404C
:1032100001208DF80B0002A801F016FF3EBD000052
:1032200000000240D0F8DC0305F0B3BFD0F8DC03A7
:1032300005F0B3BF006806F0E0BED0F8DC0305F08F
:1032400054BF10B5044690F8D40301280DD00120D6
:1032500084F8D4030121206806F070FB206806F092
:1032600083FB002084F8D40310BD022010BD10B5EC
:10327000044690F8D403012809D0012084F8D4032F
:10328000206806F001FF002084F8D40310BD02205E
:1032900010BD2DE9F05F054600680E46074606F0B2
:1032A00081FEC6EB061140074FF007084FF00409F6
:1032B00005EB810401D5484633E03146286806F025
:1032C00071FEC0054FF0080A08D507EB46114FF410
:1032D0008070C1F8080584F84DA028E031462868C0
:1032E00006F060FE000705D507EB4611C1F808A5FA
:1032F00006200CE03146286806F054FE400509D54A
:1033000007EB46114FF48060C1F80805092084F8E6
:103310004D000CE03146286806F044FE00060AD550
:10332000802007EB4611C1F8080584F84D8031462E
:10333000286806F08AFB3146286806F033FE8005CF
:103340002868314604D506F080FB4FF4007059E13F
:1033500006F028FEC0074FF0200B4FF0010A4FF097
:1033600000084ED007EB4617C7F808B5E07E0128E5
:1033700007D184F81B80D7F8040520F48030C7F803
:103380000405A87930B1206BD7F81015C1F31201EC
:10339000401AA06384F84DA0C4F844805246C7F890
:1033A00008A594F8260030B1022804D003280AD0DA
:1033B000012808D013E03146286806F046FB1020AB
:1033C000C7F808050BE0D7F8000540F00050C7F833
:1033D000000584F84C2031462846FFF7C4FDA87943
:1033E000012807D1208DA16B0144491EB1FBF0F0EB
:1033F000C00704D014F83C0F80F001002070BDE835
:10340000F09F3146286806F0CDFD80060CD507EB0D
:103410004611C1F808B5A07E0128F0D184F81BA0A0
:10342000032084F84D00B4E03146286806F0BAFD68
:1034300080074FF0050B75D507EB46100222C0F848
:10344000082594F84D10012916D0062919D007290E
:103450001CD009291AD0052933D0032963D00429A7
:103460007DD008297ED00229C9D094F84C2031465D
:103470002846FFF778FDC2E784F84D2084F84CA079
:10348000F3E784F84D2084F84CB0EEE784F84D2043
:10349000616C491C6164022910D9C4F84480A27E81
:1034A0004146012A07D1E1762177D0F8041521F4AD
:1034B0008031C0F8041584F84C90D6E784F84C208D
:1034C00022E084F84D20E17E0129CED194F8261027
:1034D0000329F3D1A16C491CA164022911D9C4F8B4
:1034E000488084F81B80616C032901D284F81CA0F9
:1034F000D0F8041521F48031C0F8041584F84C90FC
:1035000002E084F84C20B0E794F8261009B10229B3
:10351000ABD1D0F8001521F0804141F00041C0F856
:103520000015A2E724E084F84D20E17E01299CD11A
:1035300084F84C20D0F8041541F48031C0F804150B
:10354000D0F80C1541F04001C0F80C15D0F80C155E
:1035500021F02001C0F80C15D6E700E002E084F865
:103560004D20ABE784F84D20606C401C6064A2E7FE
:103570003146286806F016FD400610D507EB4611C7
:103580004020C1F8080584F84DB0A07E08B9C4F801
:10359000448031462868BDE8F05F06F056BA3146EF
:1035A000286806F0FFFCC0067FF565AF94F826009A
:1035B000032803D028B1022803D00FE0C4F84480C8
:1035C00006E0C4F84480A87910B1E07E012818D143
:1035D00084F84D903146286806F037FAE07E0128DD
:1035E0000FD107EB461084F81B80D0F8041521F4A6
:1035F0008031C0F80415D0F80C1541F02001C0F856
:103600000C15102007EB4611C1F80805F7E62DE967
:10361000F05F054600680F46064606F0C3FCC7EBA0
:10362000071140074FF0040A05EB810405D506EBAE
:103630004711C1F808A5072089E03946286806F037
:10364000B1FC80064FF000084FF001094FF0020B6B
:1036500028D506EB47112020C1F80805607E032617
:10366000012809D184F8198084F84CB084F84D60A1
:103670003946286806F0E9F9A07E012810D1E07EDD
:1036800000280DD194F82600012801D084F81B9061
:1036900084F84D603946286806F0D7F9C4F84480AC
:1036A000BDE8F09F3946286806F07CFC800506D509
:1036B00006EB47114FF40070C1F8080549E03946A0
:1036C000286806F06FFCC00720D0C4F84480394653
:1036D000286806F067FC400606D506EB471184F81B
:1036E00019904020C1F80805E07E48B106EB47106C
:1036F00084F81B80D0F8041521F48031C0F804153B
:1037000006EB47114846C1F8089520E0394628687D
:1037100006F048FC40060ED5052084F84D00A07E3A
:1037200008B984F81990C4F844803946286806F02E
:103730008CF9402028E03946286806F033FC000761
:103740000DD506EB47110820C1F80805062084F8BE
:103750004D0039462868BDE8F05F06F076B9394675
:10376000286806F01FFCC00613D5C4F8448084F80E
:103770004DA0607E18B9207E08B984F819903946AA
:10378000286806F062F9102006EB4711C1F8080519
:1037900086E73946286806F005FC00061CD5A8799E
:1037A00070B1606C401C6064022811D9C4F8448078
:1037B000524684F84CA039462846FFF7D4FB09E06E
:1037C000072084F84D003946286806F03EF901E0EC
:1037D00084F84CB08020D7E73946286806F0E2FB31
:1037E000400509D5092084F84D003946286806F0BF
:1037F0002CF94FF48060C7E73946286806F0D2FB01
:103800008007C5D506EB47115A46C1F808B594F8AC
:103810004D00012817D003283AD0042840D00528AD
:103820004ED006284FD0072801D00928B0D184F8FF
:103830004D20606C401C606402284AD9C4F8448062
:1038400084F84CA04FE084F84D2084F84C9094F814
:103850002600022801D0032845D1A87928B994F878
:103860003D0080F0010084F83D00A87901283AD19C
:10387000606B20B3218D0844401EB0FBF1F0C007FF
:1038800031D094F83D0080F0010084F83D002AE03A
:1038900084F84D20E07E012825D184F84C2022E0D8
:1038A00084F84D2084F84C20E07E01281BD184F858
:1038B0001B80D1F8040520F48030C1F8040512E023
:1038C00084F84D20E9E784F84D20052084F84C0069
:1038D00009E084F84C20D1F8000520F0804040F049
:1038E0000040C1F8000594F84C2039462846FFF7FF
:1038F0003AFBD5E67CB504680546D4F8400401904F
:10390000D4F8400420F02E0000900198800709D5DB
:103910000198C00702D02846FFF79EFA009840F0B1
:10392000020000900198000724D5009840F008009C
:103930000090019840071AD5687A022803D0E879E8
:1039400001280CD00FE00198C0F3414002282868FC
:1039500003D0012106F00AFB05E00221FAE74EF64A
:103960006020C4F804042846FFF760FC02E0284603
:10397000FFF758FC01988006009802D540F020001F
:103980000090C4F840047CBD2DE9F0410246006877
:103990000746016AC1F3434301F00F06C1F30A155C
:1039A000022B2ED1002D2CD0C6EB061102EB810488
:1039B000E16A002925D0A26B636B2A449A4222D87F
:1039C0002A4606F0FBFAE06A2844E062A06B28442D
:1039D000A06307EB4610D0F81015228DC1F3C94142
:1039E000AA420ED100290CD0D0F8001521F0804158
:1039F00041F00041C0F8001514F83C0F80F00100C0
:103A00002070BDE8F081042084F84C00F9E7000044
:103A10002DE9F05FFF4E05462DED028B0024F07975
:103A200030B1307A20B1F4713472B079401CB07189
:103A3000A879DFF8E483C0F3401088F80000A87983
:103A4000C0F3001088F80100A879C0F3C00088F81E
:103A50000300A879C0F3800088F80200A87870738A
:103A6000F178AA2901D0AA2805D07178BB2907D0FE
:103A7000BB2804D004E0F4813178491C31703482D1
:103A8000F070B17911B1318A491C3182318AFA2939
:103A900001D9B4713482317811B1F189491CF181B5
:103AA000F189FA2901D93470F481717ADB4A01294C
:103AB00010D009B1FC207073D84898F806104FF068
:103AC0004B0A90F85800A1B14FF0640978B301286F
:103AD0002ED031E0AA28EDD0CF28EBD0AB2805D1ED
:103AE000CF49D06D884201DB88F80640B47174720A
:103AF000E2E7B471747234701746022801D00328CB
:103B000004D14FF49670014603F024F997F8580059
:103B1000042803D16421880003F01CF997F85800A9
:103B200005282DD1C821322003F014F928E0FFE741
:103B30004FF0500A88F8089093464FF41677022801
:103B400001D0032805D13846394603F003F988F837
:103B500008909BF85800042801D0052810D19FED4B
:103B6000B10A88ED040A9FEDB00A384688ED060ACE
:103B7000394603F0EFF896204FF0710A88F80800F4
:103B800098F8001098F80200894640EAC10398F8B6
:103B9000012098F80310970047EA41073B43DBB246
:103BA000337398F8067027B1B778BB4200D07770AE
:103BB000B37009EB020701EB000C674488F804704E
:103BC0005FEA09079FED998A03D0B9F1010F39D057
:103BD00078E012B1012A17D074E011B1012903D0A5
:103BE00070E001280BD06DE00028FAD198ED040AAE
:103BF00088ED070A98ED060AB1EE400A83E098EDD9
:103C0000040AB1EE400AF3E711B1012906D059E0E8
:103C1000F8B998ED040AB1EE400A70E078B998ED71
:103C2000040AF1EE400AC8ED070AD8ED060AC8ED0D
:103C3000090A707802284BD188ED070A46E001286E
:103C400077D03FE012B1012A39D03BE011B1012910
:103C500022D037E010B101280CD033E098ED040AEF
:103C600088ED070A98ED060A88ED090A7078092898
:103C70002CD02DE098ED040AF1EE400AC8ED070AB9
:103C8000D8ED060AF1EE600AC8ED090A7078082836
:103C9000D2D00128D0D01BE0C0B3012812D198EDBA
:103CA000040AF1EE400AC8ED070AD8ED060AF1EE63
:103CB000600AC8ED090A70780928BDD008E0D1B1C2
:103CC000012924D088F8044088ED078A88ED098A04
:103CD000717B292001274FF0020CAA292CD03279C0
:103CE000012A29D0BB294CD0022A4AD0CF2961D041
:103CF000FC295FD064E00028A1D198ED040A88ED8A
:103D0000070A98ED060A88ED090AE1E711E00028A4
:103D100095D198ED040AF1EE400AC8ED070AD8EDF6
:103D2000060AC8ED090A7078062885D0032883D0D2
:103D3000CEE798ED040A7FE788ED078A88ED098AC7
:103D4000B18A491C89B2B182282939D93772B08227
:103D5000377198ED040AB1EE400A88ED070A9FED2D
:103D6000340A88ED090AB079022803D03178032992
:103D700028D338B388ED078A88ED098A77723470C2
:103D800020E088ED078A88ED098AF18A491C89B20A
:103D9000F182282914D9F771F08286F804C098EDD1
:103DA000040AB1EE400A88ED070A9FED220A88ED69
:103DB000090A07E07772347088ED078A88ED098A6E
:103DC0003079A0B1708A401C80B2708250450FD902
:103DD0003079022802D0012803D003E086F805C01C
:103DE00000E0777134717482F482B48200E07482EE
:103DF0007079B8B3F07A3146401CC0B2F072FF2837
:103E000002D1CC724C718C72092B20D0062B2AD097
:103E10000F2B11E0A8000020288000200C86002035
:103E20000000C8410AD7A3BD9A99193E00000000BE
:103E3000CDCCCCBDCDCCCC3D22D098ED040AB1EE9A
:103E4000400A88ED070A88ED098A8C721DE098ED1A
:103E5000040AB1EE400A88ED070A98ED060AB1EEB1
:103E6000400A08E01BE098ED040AB1EE400A88ED34
:103E7000070A98ED060A88ED090A887A401C8872BC
:103E8000887AFA2801D98C710C7048780F2803D0F1
:103E9000092801D0062802D1CC724C71B472D8ED39
:103EA000090A98ED070AFDF7B9F888ED090A707A52
:103EB00001280ED088F80740E879802812D9C0F58B
:103EC0008070A0EB0010400000EE100AB8EEC00AAF
:103ED0000FE088F8077088ED078A88ED088A88ED7A
:103EE000098AE9E7C0EB0010400000EE100AB8EEC6
:103EF000400A88ED030ABDEC028BBDE8F09FFEE7A7
:103F000070B50D4C0025C4F8A4520C48016821F48A
:103F100040310160016841F480310160C4F8A05271
:103F2000012004F5287409F023FD0120606009F0E8
:103F30001FFD656070BD000000804042000402402B
:103F40002DE9FC410121022002F0C8F801210220E4
:103F500002F0C4F801248DF8044000254FF40070ED
:103F60008DF8065003260F4F00908DF805608DF8F0
:103F7000074069463846FEF7CDFC8DF80440200224
:103F80008DF8065000908DF805608DF80740694661
:103F90003846FEF7BFFC0448C0F8A442C0F8A0426F
:103FA000BDE8FC81000402400080404270B50D4C29
:103FB0000026C4F8A4620C48016821F44031016075
:103FC000016841F4803101600125C4F8A0522846FF
:103FD00004F5287409F0CCFC6560012009F0C8FCE8
:103FE000666070BD00804042000402402DE9F04749
:103FF000814618480025016821F4403101600168BC
:104000000160154E2C462F464FF00108C6F8A472E9
:10401000012009F0ADFCC6F8A4826806D6F820128B
:10402000000E11B140F0010501E020F00105012072
:1040300009F09EFC641CE4B2082CE7D3B9F1000F30
:1040400004D0FFF7B3FF2846BDE8F087FFF758FF1D
:10405000F9E70000000402400080404270B50D46C0
:10406000044600F01BF8204600F0B0F800F05EF8BF
:10407000284600F0ABF800F059F800F00FF844F0D3
:10408000010000F0A3F800F051F80120FFF7AEFFA7
:10409000044600F02BF8204670BD000070B51148B2
:1040A000016821F440310160016841F48031016010
:1040B0000D4C0120C4F8A002D4F8201200290FD022
:1040C000C4F8A40209F054FC0025C4F8A052D4F8A6
:1040D0002002002804D1012009F04AFCC4F8A452AF
:1040E00070BD000000040240008040420D4810B541
:1040F000016821F440310160016841F480310160C0
:10410000094C0020C4F8A402C4F8A002012004F560
:10411000287409F02DFC012060602060BDE810408B
:1041200009F026BC000402400080404270B51248ED
:104130000024016821F440310160016801600F4DE5
:104140000126C5F8A062304609F012FCC5F8A46249
:1041500007E0641CE4B2322C03D9FFF7C7FF00204C
:1041600070BD012009F004FCD5F820020028F0D130
:10417000C5F8A402012070BD000402400080404246
:104180002DE9F0411D4614460F468046069EFFF776
:1041900065FF621CFF21C4F1080301FA02F22B44FF
:1041A0005B1ED9400A43C5F108018E40D2B2F1B27C
:1041B000C4F10703D940104040EA010239464046A5
:1041C00000F034F80120BDE8F08100002DE9F04155
:1041D00005461448016821F440310160016841F44A
:1041E00080310160104E0027C6F8A4723C464FF0A3
:1041F0000108E809C6F8A0026806050E012009F0CA
:10420000B7FBC6F8A482012009F0B2FBC6F8A4727D
:10421000012009F0ADFB641CE4B2082CE9D3BDE831
:10422000F0810000000402400080404270B5154655
:104230000E460446FFF732FF2046FFF7C7FFFFF7A1
:1042400075FF3046FFF7C2FFFFF770FF2846FFF704
:10425000BDFFFFF76BFFFFF749FF012070BD0000B6
:104260000F4820B5811C021D09F0A0FC0D484068D4
:10427000B0F57A7F12DB0A491E39CA8B8A810B8C12
:10428000CB81488C08820D88521BCA834A889A1AAF
:104290000A848A88801A00F580404884204620BD20
:1042A0007E870020CC7D00200E4820B5811C021D99
:1042B00009F0ECFC0C484068B0F57A7F10DB094946
:1042C00018390A8B4A824B8B8B82888BC882CD88A7
:1042D000521B0A830A899A1A4A834A89801A888358
:1042E000204620BD78870020CC7D00200021D020F2
:1042F000FFF7B4BE08B509F0B9FB0F4F0D4C4FF4F2
:104300007A7507F1180807F11E0600900A21684621
:104310000BF0C8FC6068A84207DA4146B81D00F0FF
:104320000DF83146044800F009F8FFF799FFFFF750
:10433000BBFFEBE7CC7D0020608700200A8802806D
:104340004A88428089888180704730EEC00A44F2F2
:10435000A01280ED000AD0ED010A30EE601AD0ED17
:10436000030AF8EEE00A61EE200A90ED041AB8EEB6
:10437000C11A41EE000A90ED021AB8EEC11A70EEB1
:10438000810AFDEEE00A10EE901A8160914202DC93
:104390005242914200DA826080ED010A80687047E3
:1043A000F0B5DFED711A714D0121B0EE611A95F88B
:1043B00058209FED6F3A9FED6F2ADFED6F3ADFEDEA
:1043C0006F2A022A06D0032A04D0042A0DD0052A17
:1043D0000BD01FE0F5EEC00AF1EE10FA11D310EE8B
:1043E000102A674B9A420CD810E0F5EEC00A4FF045
:1043F000FF31F1EE10FA04DC10EE102A614B9A4204
:1044000004DAF0EE431AB0EE421A03E0F0EE631A5B
:10441000B0EE621A5C4E5D4B002496F828206AB11B
:10442000DFED5B1A9FED5B1A5A89521C92B25A81DA
:10443000C82A04D95C8186F8284000E05C8130EE0F
:10444000C02A554F80ED002AD0ED012A32EE623AA3
:1044500002EE901AF8EEE22A61EEA21A63EE212A29
:1044600001EE901AF8EEE11A21EE211A41EE022A2D
:1044700090ED021AB8EEC11A32EE811ABDEEC11AE1
:1044800011EE101A8160BA68914201DC0A4600E020
:104490008260F9688A4200DA816080ED012AD0EDFD
:1044A000021A96ED091AB8EEE12AB4EE421AF1EEBC
:1044B00010FA01D17178C9B19C81B8EEE10AB4EE6D
:1044C000C01AF1EE10FA2BDD96ED080A71EE400AE3
:1044D000C6ED090A90ED020AB8EEC01AF4EEC10A60
:1044E000F1EE10FA36D8B8EEC00A31E09989491CCD
:1044F00089B299816429E0D323489C81B430012199
:10450000017080ED010A97ED000AB8EEC00A30EEA6
:10451000C00A80ED020AB5F8541081810020F0BD78
:10452000B8EEE10AB4EEC01AF1EE10FA19D296ED27
:10453000080A31EE000A86ED090AD0ED020AB8EE4B
:10454000E01AB4EEC10AF1EE10FA03DBB8EEE00AAD
:1045500086ED090A96ED090ABDEEC00A10EE100AB2
:10456000F0BDB8EEE10AF3E7000000000C86002081
:10457000C3642A3B2497FF3B6F12033BA69BC43BBB
:10458000000048C3000048439C86002040010020F2
:104590006F12833AA69B443BD87E002070B52DED68
:1045A0000A8BF0EE608AB0EE408A09F06DFA404264
:1045B00000EE100AF1EE040AF04DB8EEC00AF04C1D
:1045C00080EE201ABDEEC10A85ED000A94F858006D
:1045D00006287CD09FEDEB9AB6EE00BAA8B1012870
:1045E00013D0092811D0022872D00328FCD0042847
:1045F0006FD00528FCD0072869D1F5EEC08AF1EE0E
:1046000010FA67DD4FF4E160B5E194ED000A20EEA9
:104610000B0A10EE100AFCF710F841EC1C0BB3EE7D
:104620000E0A08F0FDFF10EE100AFCF706F841EC48
:10463000100B07F069FDD4ED019AB0EE40AAF0EE40
:1046400060AA19EE900AFBF7F8FF53EC1A2BFBF760
:1046500067FF53EC1C2BFBF74AFEFCF719F800EE42
:10466000100A94ED001AF1EE400A41EE4B0A89EE71
:10467000A00A10EE100AFBF7E0FF41EC100B06F069
:10468000A7FC51EC100BFCF703F801EE900AB3EE17
:104690000E0A08F0C5FFB0EE401AF0EE610AB0EE67
:1046A000680A0BF015F9B5EEC00AF0EE408AF1EE9B
:1046B00010FA29D094ED000A20EE0B0A10EE100A31
:1046C000FBF7BBFF41EC1A0B18EE900A03E088E001
:1046D0008AE0EAE045E1FBF7B0FF41EC100B07F0A0
:1046E00013FDB0EE409AF0EE609A6068FBF7A5FF0C
:1046F00053EC192BFBF714FF53EC1A2BFBF7F7FDC8
:10470000FBF7C6FF09EE100AF5EEC08AF1EE10FACB
:1047100016D094ED000AF0EE490A40EE4B0A60EE26
:10472000880A80EE891AF0EE490A40EE0B0A20EE64
:10473000880AC0EE090A84ED071AC4ED0A0A03E0EC
:1047400084ED078A84ED0A8A18EE900AFBF775FF5C
:1047500041EC100B9FED8C1B06F00AFE9FED8C1BAD
:1047600051EC100B53EC112BFBF768FE41EC1A0BCC
:1047700018EE900AFBF761FF41EC100B9FED861BD2
:1047800006F0F6FD9FED861B51EC100B53EC112B40
:10479000FBF754FE41EC190BDFED830A9FED830A12
:1047A00008EEA00A10EE100AFBF747FF53EC192B96
:1047B000FBF79DFD53EC1A2BFBF799FDFBF768FF08
:1047C00000EE100A84ED130AD5E90010084400EE4B
:1047D000900AF8EEE00A30EE800ABDEEC00A84EDE1
:1047E000150ABDEC0A8B70BDB3EE090A08F018FF7C
:1047F00010EE100AFBF721FF41EC100B07F084FCD0
:10480000D4ED019AB0EE40AAF0EE60AA19EE900A3B
:10481000FBF713FF53EC1A2BFBF782FE9FED64AB03
:1048200053EC1A2BFBF763FDFBF732FF00EE100A87
:10483000B1EE400ADFED600A5FE018EE900AFBF788
:10484000FCFE41EC100B07F05FFCB0EE409AF0EE7E
:10485000609A6068FBF7F1FE53EC192BFBF760FEE2
:1048600053EC1A2BFBF743FDFBF712FF09EE100A7E
:1048700071E094ED000AF0EE490A40EE4B0A60EE5A
:10488000880A80EE891AF0EE490A40EE0B0A20EE03
:10489000880AC0EE090A84ED071AC4ED0A0AA0E7E7
:1048A00084ED078A84ED0A8A9BE7B3EE090A08F0D3
:1048B000B7FE10EE100AFBF7C0FE41EC100B07F03C
:1048C00023FCD4ED019AB0EE40AAF0EE60AA19EEF6
:1048D000900AFBF7B2FE53EC1A2BFBF721FE9FED7B
:1048E00037AB53EC1A2BFBF702FDFBF7D1FE00EEC2
:1048F000100ADFED340AB1EE400A70EE600A89EE6C
:10490000A00A10EE100AFBF798FE41EC100B06F01F
:104910005FFB51EC100BFBF7BBFE01EE900AB3EE10
:10492000090A08F07DFEB0EE401AF0EE610AB0EE22
:10493000680A0AF0CDFFF0EE408A02F031FA00EE8C
:10494000100AF5EEC08AB8EEC00AF1EE10FA84ED56
:10495000130A7FF472AFF5EEC08AF1EE10FA9FD021
:1049600087E7F5EEC08AF1EE10FA02D240F24C4031
:1049700001E040F2DC50606533E70000D87E0020A3
:104980000C8600200000000000000000000008402D
:10499000000000C0CC8C52C00000000000000040AD
:1049A0000000000000A078C000C053443333FB4037
:1049B000000000202FDDC43F79E9263E00000020E2
:1049C0005839CC3FC1CA613E1CB50121042001F019
:1049D00085FB2020009000208DF8040003208DF836
:1049E000050001208DF8070069460248FDF792FF97
:1049F0001CBD00000008024000EE100AB7EE001ACD
:104A000070B5F8EE400A3948394D002281EE200A8F
:104A1000DFED350A437820EE200A4BB10270428068
:104A20008280C2800281D5F81432012B00D14270FD
:104A3000D5F81432012463B9437853B90470C3889C
:104A40005B1C9BB2C3808B4203D9C28083885B1CF2
:104A50008380DFED280A868880EE801AFCEEC10A8A
:104A600010EE903A9BB2B34202D24470032070BD64
:104A70000378B3B3D5F81432012B09D103895B1C39
:104A80009BB203818B4203D902814188491C41803A
:104A9000DFED190A80EE801AFCEEC10A10EE901AC2
:104AA000DFED160A8AB241888A420ED280EE801A61
:104AB000BCEEC11A11EE102A92B28A4205D9D5F87D
:104AC000141271B94470022070BD80EE801ABCEEE1
:104AD000C10A10EE102A92B28A4203D24470012019
:104AE00070BDFFE70020FBE700007A44D4000020FF
:104AF000000041420000FA43000048420000964393
:104B000000221249012370B101280FD002280FD0D2
:104B1000032811D0042811D0052813D006280AD163
:104B20000A704A7006E00A704B7009E00A7000E0F3
:104B30000B704B708A7070470B70F2E70B7002E0DD
:104B40008B7070470A704A70FAE70000E00000209E
:104B500030B41949194A0C78137851789278022C9C
:104B60000DD0012C09D1164C01281DD00120C4F80C
:104B7000B802C4F8B402C4F8BC0230BC70470128C3
:104B800003D000221146104605E03BB1002039B1A8
:104B900000213AB1002230BC00F014B8FF20F6E743
:104BA000FF21F6E7FF22F6E7C4F8B832C4F8B412E2
:104BB000C4F8BC22E1E70000CC7D0020E00000202A
:104BC0000080414270B514460D460AF0CBF9074B00
:104BD000186028460AF0C6F90549886320460AF09D
:104BE000C1F90249091F086070BD00003818004073
:104BF0000040014070B53C21D020FFF72FFA044659
:104C00003B21D020FFF72AFA04EB0020184C3E216C
:104C1000E083D020FFF722FA05463D21D020FFF7A0
:104C20001DFA05EB002020844021D020FFF716FA62
:104C300005463F21D020FFF711FA05EB00200D4972
:104C400000B260844968B1F57A7F0FDBE18BA18106
:104C5000228CE28120822388C91AE1836188511A5B
:104C60002184A188401A00F58040608470BD000056
:104C700060870020CC7D002070B54421D020FFF754
:104C8000EDF904464321D020FFF7E8F904EB0020BA
:104C9000174C46212083D020FFF7E0F90546452137
:104CA000D020FFF7DBF905EB002060834821D020FE
:104CB000FFF7D4F905464721D020FFF7CFF905EBE0
:104CC00000200C4900B2A0834968B1F57A7F0DDB62
:104CD000218B6182628BA282E082E388C91A2183E0
:104CE0002189511A61836189401AA08370BD000037
:104CF00060870020CC7D0020BC2801D3012210E079
:104D0000622801D302220CE02A2801D3032208E002
:104D1000142801D3042204E00A2801D3052200E06C
:104D200006221A21D020FFF781BA10B504464FF4AD
:104D30007A70844201D9044602E0042C00D2042493
:104D4000B0FBF4F0401EC2B21921D020FFF76EFA7A
:104D50006008BDE81040FFF7CFBF7521D020FFF7F6
:104D60007DB910B580226B21D020FFF75FFAC820F3
:104D700008F0E2FD00226B21D020FFF757FA012056
:104D800000F03AF8002000F02EF83220FFF7CDFFB7
:104D900000223821D020FFF749FA00226A21D020D2
:104DA000FFF744FA00222321D020FFF73FFA8022A8
:104DB0003721D020FFF73AFA7521D020FFF74EF9BE
:104DC000682801D0012010BD01226B21D020FFF7FF
:104DD0002DFA00226C21D020FFF728FA3220FFF7AD
:104DE000A4FF002010BD08B50223009004221C215E
:104DF000D020FFF7C5F908BD08B5022300900422B2
:104E00001B21D020FFF7BCF908BD000008B508F051
:104E10002DFE0F4F0D4C4FF47A7507F1180807F16E
:104E20001E0600900A2168460AF03CFF6068A8420E
:104E300007DA4146B81DFFF781FA31460448FFF70B
:104E40007DFAFFF7D7FEFFF717FFEBE7CC7D0020D9
:104E500060870020124910B51048086001221149EE
:104E6000114804F087F808B1FDF776FC0F490E48A9
:104E700004F08AFC08B1FDF76FFC0D490A4804F004
:104E800083FC08B1FDF768FC074804F0C4FC002867
:104E900003D0BDE81040FDF75FBC10BDFC00002052
:104EA000F80000202D980008A88D0020FC010020AB
:104EB0001C020020FEE7000070B50121022001F075
:104EC0000DF90121022001F009F90121042001F06E
:104ED00005F90121102001F001F90121082001F05C
:104EE000FDF80121082001F0F9F80121042001F06A
:104EF000F5F80121084601F0F1F81E4D4FF400517C
:104F00002846FDF743FDAC1421462846FDF73EFD3B
:104F1000194D01212846FDF739FDE1001748FDF73D
:104F200035FD174EA1103046FDF730FD21463046C5
:104F3000FDF72CFD21462846FDF728FD21111148DB
:104F4000FDF724FD10490020C1F8B402C1F8B002F9
:104F50000E4AC2F880020E49C1F8BC020D49C1F8E0
:104F6000A802C1F8B002C2F8B0020B49C1F8A00211
:104F700070BD000000040240000802400010024022
:104F8000000C02400000024000804042000041420C
:104F90000000424200804142000040422DE9FE43B1
:104FA0000C460546FFF788FF0121022001F0BAF800
:104FB0000121042001F092F80121022001F0B2F851
:104FC0000121042001F08AF80121022001F0AAF851
:104FD0000121042001F082F80121022001F0A2F851
:104FE0000121042001F07AF8144FDFF85480CDE954
:104FF0000054002604233A46D9014046029602F0A6
:1050000037FCCDE9005403233A46B91540460296D1
:1050100002F02EFCCDE9005402233A46802140469E
:10502000029602F025FCCDE9005401233A464021C6
:105030004046029602F01CFCBDE8FE8300040140DD
:10504000000802407047000030B50F23C278017895
:105050000125FAB1144A126801F1E02102F4E0627C
:10506000C2F5E062C2F30722C2F10404D3404278E1
:10507000A24084781C401443220181F80024007867
:1050800000F01F018D404009800000F1E020C0F8D1
:10509000005130BD01F01F0085404809800000F13B
:1050A000E020C0F8805130BD0CED00E0024908431B
:1050B00002490860704700000000FA050CED00E0AE
:1050C00030B40021084B0A46002003EBC004401C0A
:1050D000C0B262548028F8D3491CC9B20829F3D35E
:1050E00030BC00F011B90000EC80002010B50021A8
:1050F000074B0A46002003EBC004401CC0B26254B8
:105100008028F8D3491CC9B20829F3D310BD000088
:10511000EC8000202DE9F0471F4690460E4682465F
:105120000025DDF8209011E03146504600F034F9BA
:10513000544607E019F8050001216D1C00F014FC2D
:10514000641CE4B24445F5D3761CF6B2BE42EBD300
:10515000BDE8F08710B57F2816D83F2914D807235B
:10516000A3EBD10301F00701C1F107040121A14024
:10517000064CDBB204EBC000002AC25CC9B201D00D
:105180000A4300E08A43C25410BD0000EC800020B6
:105190007CB50121082000F0A1FF01258DF8045005
:1051A000002480208DF80640514E00908DF8054077
:1051B0008DF8074069463046FDF7ACFB8DF804508A
:1051C00040208DF8064000908DF805408DF807408E
:1051D00069463046FDF79EFB8DF8045020208DF87F
:1051E000064000908DF805408DF80740694630462E
:1051F000FDF790FB8DF8045010208DF806400090CC
:105200008DF805408DF8074069463046FDF782FB72
:10521000384EC6F89442642006F5257608F08CFBDB
:1052200035600021AE2000F09FFB0021D52000F06A
:105230009BFB0021502000F097FB0021A82000F0EC
:1052400093FB00213F2000F08FFB0021D32000F0D2
:105250008BFB0021084600F087FB0021402000F076
:1052600083FB00218D2000F07FFB0021142000F043
:105270007BFB0021202000F077FB0021022000F0C2
:1052800073FB0021A12000F06FFB0021C02000F083
:105290006BFB0021DA2000F067FB0021122000F0F8
:1052A00063FB0021812000F05FFB0021EF2000F074
:1052B0005BFB0021D92000F057FB0021F12000F01A
:1052C00053FB0021DB2000F04FFB0021302000F0D9
:1052D0004BFB0021A42000F047FB0021A62000F09A
:1052E00043FB0021AF2000F03FFBFFF7E9FE7CBD50
:1052F000000C0240008041420121017041700021F8
:1053000081700321C170704770B5104E002505F102
:10531000B000C0B2002100F027FB0021084600F0D9
:1053200023FB0021102000F01FFB002406EBC4002B
:105330000121405D00F018FB641CE4B2802CF5D321
:105340006D1CEDB2082DE2D370BD0000EC80002092
:1053500070B5104E002505F1B000C0B2002100F07C
:1053600003FB0021084600F0FFFA0021102000F0A6
:10537000FBFA002406EBC4000121405D00F0F4FAC2
:10538000641CE4B2802CF5D36D1CEDB2022DE2D387
:1053900070BD0000EC80002010B50446B031C8B2EA
:1053A000002100F0E1FA102040EA1410002100F082
:1053B000DBFA04F00F00BDE81040002100F0D4BA81
:1053C0002DE9F05F203A98460D468346894602F063
:1053D000FF0A00262EE0B8F10C0F08D0174901EBA8
:1053E0000A100027845D200607D50A9A08E01449B0
:1053F0000AEB4A0001EB8000F3E70A9890B1002223
:1054000029465846FFF7A6FE6D1C6006EDB2040E55
:10541000A5EB0901414507D10BF101004D4600F014
:10542000FF0B05E00122EBE77F1CFFB2082FDAD368
:10543000761CF6B24645CED3BDE8F09FCC130108EA
:10544000580F010801490020087070478C010020A6
:105450002DE9FF4F81B00027DDF838B01D46924698
:1054600080463C464FF001094FEA5B062BE0281BC3
:10547000401E0A22C0B2012100E05143401EC0B2CA
:10548000FBD2BAFBF1F00A21B0FBF1F201FB1200F2
:1054900027B9691E8C4201DA48B101273030C2B207
:1054A00006FB0480C0B25B46CDF8009006E006FB28
:1054B0000480C0B25B462022CDF800900299FFF72D
:1054C0007FFF641CE4B2AC42D1D305B0BDE8F08FDD
:1054D000F8B516460D460446012714E07A2C02D989
:1054E00000241035EDB23A2D03D900242546FFF7EC
:1054F000E7FD009732780C2329462046FFF760FF2E
:105500000834E4B2761C30780028E7D1F8BD0000FA
:10551000F8B5C14D28786978884206D0FFF7D0FDEC
:10552000FFF7F2FE28786870F8BDBC4EBC4F0C2423
:105530006870012806D002287DD003287CD000287E
:105540007BD05DE140F299150A210C20FDF760FB4C
:10555000B0FBF5F5B07900B3B2A200210846FFF721
:10556000B7FFB2480078D0B1B1A200212620FFF7E2
:10557000AFFFB0A200213C20FFF7AAFFAE4DB5F966
:105580001C00002813DAADA200215020FFF7A0FF75
:105590000094B5F91C00424211E0A9A2DDE7022304
:1055A0002A46002128200094FFF752FFE1E7A6A237
:1055B00000215020FFF78CFF0094B5F91C20052333
:1055C00000215A20FFF744FFA04C2078C10701D0EA
:1055D0009FA212E0810701D59FA20EE0410701D5ED
:1055E0009FA20AE0010701D59FA206E0C10601D5EE
:1055F0009FA202E0800604D59FA232210020FFF77F
:1056000067FF6078E8B19EA232212D20FFF760FF8E
:10561000022397ED170A1A4632214B2008F076FE36
:105620008CA232214B20FFF753FF96A23221782023
:10563000FFF74EFF02E006E03DE091E008F030FDAC
:10564000DEE091A2E0E791A200210720FFF740FFF2
:105650000094327801230A210920FFF7F9FE009413
:10566000727801230A212720FFF7F2FE0094F278D6
:1056700001230A214520FFF7EBFE0094B2780123B5
:105680000A216320FFF7E4FE84A21E210020FFF719
:105690001FFF84A21E214B20FFF71AFFD6ED030A3D
:1056A0009FED811A02231E2180EE810A1A460846C8
:1056B00008F02CFEA4E000217CA20846FFF708FFBA
:1056C0007DA200214220FFF703FF7CA20C210020D5
:1056D000FFF7FEFE009497F8582002230C21422089
:1056E000FFF7B6FE78A218210020FFF7F1FE784DF3
:1056F000287808F097F9024618214220FFF7E8FEC3
:1057000074A224210020FFF7E3FE687808F0A0F9D6
:10571000024624214220FFF7DBFE70A23021002048
:10572000FFF7D6FE6E4D009403232A78302118200F
:10573000FFF78EFE009430216A7803230846FFF7B6
:1057400087FE0094AA78032330214820FFF780FECB
:105750000094EA78032330216020FFF779FE4FE0C0
:10576000604C6078012804D0012698B1022815D039
:1057700046E05D4800900723602201212020FFF7CA
:10578000C9FC5AA232210C20FFF7A2FEBDE8F84066
:10579000FFF7DEBDFFF7AAFC2E7031E01E4910397D
:1057A000C888401C80B2C8801E2802D30020C88050
:1057B0002E70FFF79BFC00214FA20846FFF788FEE2
:1057C00051A20F210020FFF783FEA07802281BD0F2
:1057D000032819D0042819D0052819D04DA21E215C
:1057E0000020FFF775FE4FA22D210020FFF770FE6D
:1057F000207801280ED04EA22D215A20FFF768FEF6
:10580000BDE8F840FFF780BD4AA2E8E74DA2E6E711
:1058100050A2E4E753A2EFE78C010020288000208B
:105820000C86002052434D203A000000D486002010
:1058300020580000475A0000608700202D0000001B
:10584000545950453A0000002B0000009C8600206F
:10585000524F5320200000005053322020000000FF
:105860004150502020000000522D43202000000015
:1058700043414E2020000000555341525400000087
:105880004F46460056000000204F4E004C4120205D
:105890004C42202052422020524100006375723A4F
:1058A000000000004100000000007A444361724D96
:1058B0006F64653A00000000414B4D004361725433
:1058C0007970653A0000000048575F5665723A00EB
:1058D000CC7D002053575F5665723A0049503A001C
:1058E000A8010020F5000020FC23010855534220A8
:1058F000496E69742E2E000055534220496E69741A
:10590000204F4B2E0000000050533220496E666F2E
:105910003A000000556E4B6E6F776E20446576201E
:1059200000000000446174612052656164793A00AE
:105930004E6F2000576972656420555342505332B0
:1059400000000000322E344720555342505332207D
:105950000000000078626F7820333630202020204D
:10596000000000005965730030B500230E4A012481
:1059700011B1C2F8904201E0C2F890320021C2F8A1
:105980009C32050602D5C2F8984201E0C2F898326E
:10599000C2F89C424006491C000EC9B20829EED349
:1059A000C2F8904230BD0000008041420148FDF73E
:1059B0002BBB0000C889002082680021002A01DD7D
:1059C000521E8260002A01DA521C8260521C032A95
:1059D00002D2002181600121084670479FED050A2F
:1059E000002380ED000A80ED010A8360C0E9031204
:1059F00070470000000000009FED040A002180EDC8
:105A0000000A80ED010A816070470000000000007C
:105A1000002900DDC160002A00DD0261704700003E
:105A20002DE9F84301250746ADF80050204800262F
:105A30004670ADF800501F4C80464FF6FF792DE0C0
:105A4000BDF80000384202D0C4F8845201E0C4F826
:105A50008462102007F08CFFC4F88C52052007F0F8
:105A600087FFC4F88C62052007F082FFC4F88C52CF
:105A7000102007F07DFFD4F8000230B198F8011033
:105A8000BDF80020114388F80110102007F070FFC6
:105A9000BDF8001009EA4100ADF80000BDF80000B3
:105AA000FF28CDD9BDE8F843102007F061BF000002
:105AB000008500200000424270B50020274C0546BA
:105AC0002554401CC0B20928FAD300F0E3F86678E8
:105AD000412E03D0202E01D0FF2E07D100F02EF949
